{
  "contractName": "PC",
  "abi": [
    {
      "constant": true,
      "inputs": [
        {
          "name": "",
          "type": "address"
        },
        {
          "name": "",
          "type": "address"
        }
      ],
      "name": "channels",
      "outputs": [
        {
          "name": "sender",
          "type": "address"
        },
        {
          "name": "recipient",
          "type": "address"
        },
        {
          "name": "collateral",
          "type": "uint256"
        }
      ],
      "payable": false,
      "stateMutability": "view",
      "type": "function"
    },
    {
      "constant": false,
      "inputs": [
        {
          "name": "recipient",
          "type": "address"
        }
      ],
      "name": "openChannel",
      "outputs": [],
      "payable": true,
      "stateMutability": "payable",
      "type": "function"
    },
    {
      "constant": false,
      "inputs": [
        {
          "name": "sender",
          "type": "address"
        },
        {
          "name": "recipient",
          "type": "address"
        },
        {
          "name": "valueTransferred",
          "type": "uint256"
        },
        {
          "name": "v",
          "type": "uint8"
        },
        {
          "name": "r",
          "type": "bytes32"
        },
        {
          "name": "s",
          "type": "bytes32"
        }
      ],
      "name": "closeChannel",
      "outputs": [],
      "payable": false,
      "stateMutability": "nonpayable",
      "type": "function"
    },
    {
      "constant": true,
      "inputs": [
        {
          "name": "sender",
          "type": "address"
        },
        {
          "name": "recipient",
          "type": "address"
        },
        {
          "name": "valueTransferred",
          "type": "uint256"
        },
        {
          "name": "v",
          "type": "uint8"
        },
        {
          "name": "r",
          "type": "bytes32"
        },
        {
          "name": "s",
          "type": "bytes32"
        }
      ],
      "name": "verifySignature",
      "outputs": [
        {
          "name": "",
          "type": "bool"
        }
      ],
      "payable": false,
      "stateMutability": "view",
      "type": "function"
    },
    {
      "constant": true,
      "inputs": [
        {
          "name": "sender",
          "type": "address"
        },
        {
          "name": "recipient",
          "type": "address"
        }
      ],
      "name": "getChannelCollateral",
      "outputs": [
        {
          "name": "",
          "type": "uint256"
        }
      ],
      "payable": false,
      "stateMutability": "view",
      "type": "function"
    }
  ],
  "bytecode": "0x608060405234801561001057600080fd5b50610dee806100206000396000f30060806040526004361061006d576000357c0100000000000000000000000000000000000000000000000000000000900463ffffffff1680632abb5e9d1461007257806331cb5267146100a857806345a1b48d146101565780635817fc4414610233578063c2db9119146102aa575b600080fd5b6100a6600480360381019080803573ffffffffffffffffffffffffffffffffffffffff169060200190929190505050610340565b005b3480156100b457600080fd5b5061013c600480360381019080803573ffffffffffffffffffffffffffffffffffffffff169060200190929190803573ffffffffffffffffffffffffffffffffffffffff16906020019092919080359060200190929190803560ff16906020019092919080356000191690602001909291908035600019169060200190929190505050610574565b604051808215151515815260200191505060405180910390f35b34801561016257600080fd5b506101b7600480360381019080803573ffffffffffffffffffffffffffffffffffffffff169060200190929190803573ffffffffffffffffffffffffffffffffffffffff1690602001909291905050506107e4565b604051808473ffffffffffffffffffffffffffffffffffffffff1673ffffffffffffffffffffffffffffffffffffffff1681526020018373ffffffffffffffffffffffffffffffffffffffff1673ffffffffffffffffffffffffffffffffffffffff168152602001828152602001935050505060405180910390f35b34801561023f57600080fd5b50610294600480360381019080803573ffffffffffffffffffffffffffffffffffffffff169060200190929190803573ffffffffffffffffffffffffffffffffffffffff16906020019092919050505061085b565b6040518082815260200191505060405180910390f35b3480156102b657600080fd5b5061033e600480360381019080803573ffffffffffffffffffffffffffffffffffffffff169060200190929190803573ffffffffffffffffffffffffffffffffffffffff16906020019092919080359060200190929190803560ff169060200190929190803560001916906020019092919080356000191690602001909291905050506109b2565b005b600034141561034e57600080fd5b3373ffffffffffffffffffffffffffffffffffffffff168173ffffffffffffffffffffffffffffffffffffffff16141561038757600080fd5b60008060003373ffffffffffffffffffffffffffffffffffffffff1673ffffffffffffffffffffffffffffffffffffffff16815260200190815260200160002060008373ffffffffffffffffffffffffffffffffffffffff1673ffffffffffffffffffffffffffffffffffffffff16815260200190815260200160002060020154111561041357600080fd5b6060604051908101604052803373ffffffffffffffffffffffffffffffffffffffff1681526020018273ffffffffffffffffffffffffffffffffffffffff168152602001348152506000803373ffffffffffffffffffffffffffffffffffffffff1673ffffffffffffffffffffffffffffffffffffffff16815260200190815260200160002060008373ffffffffffffffffffffffffffffffffffffffff1673ffffffffffffffffffffffffffffffffffffffff16815260200190815260200160002060008201518160000160006101000a81548173ffffffffffffffffffffffffffffffffffffffff021916908373ffffffffffffffffffffffffffffffffffffffff16021790555060208201518160010160006101000a81548173ffffffffffffffffffffffffffffffffffffffff021916908373ffffffffffffffffffffffffffffffffffffffff1602179055506040820151816002015590505050565b6000806000888888604051602001808473ffffffffffffffffffffffffffffffffffffffff1673ffffffffffffffffffffffffffffffffffffffff166c010000000000000000000000000281526014018373ffffffffffffffffffffffffffffffffffffffff1673ffffffffffffffffffffffffffffffffffffffff166c0100000000000000000000000002815260140182815260200193505050506040516020818303038152906040526040518082805190602001908083835b602083101515610654578051825260208201915060208101905060208303925061062f565b6001836020036101000a03801982511681845116808217855250505050505090500191505060405180910390209150600182878787604051600081526020016040526040518085600019166000191681526020018460ff1660ff1681526020018360001916600019168152602001826000191660001916815260200194505050505060206040516020810390808403906000865af11580156106fa573d6000803e3d6000fd5b5050506020604051035190508873ffffffffffffffffffffffffffffffffffffffff168173ffffffffffffffffffffffffffffffffffffffff1614151561074457600092506107d8565b866000808b73ffffffffffffffffffffffffffffffffffffffff1673ffffffffffffffffffffffffffffffffffffffff16815260200190815260200160002060008a73ffffffffffffffffffffffffffffffffffffffff1673ffffffffffffffffffffffffffffffffffffffff1681526020019081526020016000206002015410156107d357600092506107d8565b600192505b50509695505050505050565b6000602052816000526040600020602052806000526040600020600091509150508060000160009054906101000a900473ffffffffffffffffffffffffffffffffffffffff16908060010160009054906101000a900473ffffffffffffffffffffffffffffffffffffffff16908060020154905083565b6000610865610d74565b6000808573ffffffffffffffffffffffffffffffffffffffff1673ffffffffffffffffffffffffffffffffffffffff16815260200190815260200160002060008473ffffffffffffffffffffffffffffffffffffffff1673ffffffffffffffffffffffffffffffffffffffff168152602001908152602001600020606060405190810160405290816000820160009054906101000a900473ffffffffffffffffffffffffffffffffffffffff1673ffffffffffffffffffffffffffffffffffffffff1673ffffffffffffffffffffffffffffffffffffffff1681526020016001820160009054906101000a900473ffffffffffffffffffffffffffffffffffffffff1673ffffffffffffffffffffffffffffffffffffffff1673ffffffffffffffffffffffffffffffffffffffff1681526020016002820154815250509050806040015191505092915050565b6109ba610d74565b60008060008973ffffffffffffffffffffffffffffffffffffffff1673ffffffffffffffffffffffffffffffffffffffff16815260200190815260200160002060008873ffffffffffffffffffffffffffffffffffffffff1673ffffffffffffffffffffffffffffffffffffffff168152602001908152602001600020600201541415610a4657600080fd5b6000808873ffffffffffffffffffffffffffffffffffffffff1673ffffffffffffffffffffffffffffffffffffffff16815260200190815260200160002060008773ffffffffffffffffffffffffffffffffffffffff1673ffffffffffffffffffffffffffffffffffffffff168152602001908152602001600020606060405190810160405290816000820160009054906101000a900473ffffffffffffffffffffffffffffffffffffffff1673ffffffffffffffffffffffffffffffffffffffff1673ffffffffffffffffffffffffffffffffffffffff1681526020016001820160009054906101000a900473ffffffffffffffffffffffffffffffffffffffff1673ffffffffffffffffffffffffffffffffffffffff1673ffffffffffffffffffffffffffffffffffffffff1681526020016002820154815250509050806020015173ffffffffffffffffffffffffffffffffffffffff163373ffffffffffffffffffffffffffffffffffffffff16141515610bc357600080fd5b8481604001511015610bd457600080fd5b610be2878787878787610574565b1515610bed57600080fd5b610bf78186610cd4565b6000808873ffffffffffffffffffffffffffffffffffffffff1673ffffffffffffffffffffffffffffffffffffffff16815260200190815260200160002060008773ffffffffffffffffffffffffffffffffffffffff1673ffffffffffffffffffffffffffffffffffffffff168152602001908152602001600020600080820160006101000a81549073ffffffffffffffffffffffffffffffffffffffff02191690556001820160006101000a81549073ffffffffffffffffffffffffffffffffffffffff02191690556002820160009055505050505050505050565b816020015173ffffffffffffffffffffffffffffffffffffffff166108fc829081150290604051600060405180830381858888f19350505050158015610d1e573d6000803e3d6000fd5b50816000015173ffffffffffffffffffffffffffffffffffffffff166108fc828460400151039081150290604051600060405180830381858888f19350505050158015610d6f573d6000803e3d6000fd5b505050565b606060405190810160405280600073ffffffffffffffffffffffffffffffffffffffff168152602001600073ffffffffffffffffffffffffffffffffffffffff1681526020016000815250905600a165627a7a72305820f7cb0799e53acdc8fe9c7e2ab1c0d04d86dac3cb557a32f40df432b34983ca040029",
  "source": "pragma solidity ^0.4.2;\n\ncontract PC {\n\n    struct Channel {\n        address sender;\n        address recipient;\n        uint collateral;\n    }\n\n\n    mapping (address => mapping (address => Channel)) public channels;\n\n    function openChannel(address recipient) public payable {\n        //perform some validation first\n        if (msg.value == 0) { \n            revert(); \n        }\n        \n        if (recipient == msg.sender) { \n            revert(); \n        }\n\n        if (channels[msg.sender][recipient].collateral > 0) {\n            revert();\n        }\n\n        channels[msg.sender][recipient] = Channel({\n            sender:msg.sender,\n            recipient: recipient,\n            collateral: uint(msg.value)\n        });\n    }\n\n\n    function closeChannel(\n        address sender, \n        address recipient, \n        uint valueTransferred,\n        uint8 v, \n        bytes32 r, \n        bytes32 s\n    ) \n    public \n    {\n        // Check channel exists\n        if (channels[sender][recipient].collateral == 0) {\n            revert();\n        }\n\n        // Load channel into memory\n        Channel memory channel = channels[sender][recipient];\n\n        // Make sure value transferred is less than or equal to collateral\n        if (msg.sender != channel.recipient) {\n            revert();\n        }\n\n        // Make sure value transferred is less than or equal to collateral\n        if (channel.collateral < valueTransferred) {\n            revert();\n        }\n\n        if (!verifySignature(sender, recipient, valueTransferred, v, r, s)) {\n            revert();\n        }\n\n        // Settle up\n        settleBalances(channel, valueTransferred);\n\n        // Remove mapping\n        delete channels[sender][recipient];\n    }\n\n\n    function settleBalances(\n        Channel channel, \n        uint valueTransferred\n    ) \n    private \n    {\n        channel.recipient.transfer(valueTransferred);\n        channel.sender.transfer((channel.collateral - valueTransferred));\n    }\n\n\n    function verifySignature(\n        address sender, \n        address recipient, \n        uint valueTransferred,\n        uint8 v, \n        bytes32 r, \n        bytes32 s\n    ) \n    public view returns (bool)\n    {\n        // Required for providers such as: Geth, Parity, TestRPC\n        // bytes memory prefix = \"\\x19Ethereum Signed Message:\\n32\";\n\n        // 2 Step Validate Signature with sha3 (alias for keccak256)\n        bytes32 messageHash = keccak256(abi.encodePacked(\n            sender,\n            recipient,\n            valueTransferred\n        ));\n\n        // bytes32 prefixedHash = keccak256(abi.encodePacked(\n        //     prefix,\n        //     messageHash\n        // ));\n\n        address signerAddress = ecrecover(messageHash,v,r,s);\n\n        if (signerAddress != sender) {\n            return false;\n        }\n        if (channels[sender][recipient].collateral < valueTransferred){\n            return false;\n        }\n        return true;\n    }\n\n\n    function getChannelCollateral(\n        address sender, \n        address recipient\n    ) \n    public view returns (uint) \n    {\n        Channel memory channel = channels[sender][recipient];\n        return channel.collateral;\n    }\n\n}",
  "sourcePath": "/Users/a931759898/Desktop/Desktop/SFENKS/EdgeToll/EdgeToll/SmartContract/contracts/PC.sol",
  "compiler": {
    "name": "solc",
    "version": "0.4.24+commit.e67f0147.Emscripten.clang"
  },
  "schemaVersion": "2.0.1",
  "updatedAt": "2019-02-23T10:52:44.661Z"
}